:020000040800F2
:1000000000040020C101000827040008550300086F
:100010002504000809020008A506000800000000E9
:10002000000000000000000000000000790500084A
:100030000B02000800000000290400085106000817
:10004000DB010008DB010008DB010008DB01000820
:10005000DB010008DB010008DB010008DB01000810
:10006000DB010008DB010008DB010008DB01000800
:10007000DB010008DB010008DB010008DB010008F0
:10008000DB010008DB010008DB010008DB010008E0
:10009000DB010008DB010008DB010008DB010008D0
:1000A000DB010008DB010008DB010008DB010008C0
:1000B000DB010008DB010008DB010008DB010008B0
:1000C000DB010008DB010008DB010008DB010008A0
:1000D000DB010008DB010008DB010008DB01000890
:1000E000DB010008DB010008DB010008DB01000880
:1000F000DB010008DB010008DB010008DB01000870
:10010000DB010008DB010008DB010008DB0100085F
:10011000DB010008DB010008DB010008DB0100084F
:10012000DB010008DB010008DB010008DB0100083F
:10013000DB010008DB010008DB010008DB0100082F
:10014000DB010008DB010008DB010008DB0100081F
:10015000DB010008DB010008DB010008DB0100080F
:10016000DB010008DB010008DB010008DB010008FF
:10017000DB010008DB010008DB010008DB010008EF
:10018000DB010008DB010008DB010008DB010008DF
:10019000DB010008DB010008DB010008DB010008CF
:1001A000DB010008DB010008DB010008DFF80CD0F0
:1001B00000F018F800480047C506000800040020B9
:1001C0000648804706480047FEE7FEE7FEE7FEE7F1
:1001D000FEE7FEE7FEE7FEE7FEE7FEE7550600085E
:1001E000AD010008064C074D06E0E06840F0010351
:1001F00094E8070098471034AC42F6D3FFF7DAFFD3
:100200002007000830070008FEE7704701B502E04C
:100210000098401E009000980028F9D108BD2DE9F3
:10022000F041002201274FF0030C07FA02F50B689A
:100230002B40AB422CD1066853000CFA03F4A643C2
:1002400006600E79D0F800809E4046EA08060660F7
:100250000E79012E01D0022E12D18668A643866047
:100260004E79D0F808809E4046EA080686604668C7
:10027000AE43466045688E799640B6B235434560D8
:10028000C568A543C560CC799C40C3681C43C46065
:10029000521C102AC9D3BDE8F08141837047018305
:1002A000704700002DE9FC4106460F4690461D466A
:1002B00000200190012000F0F5F800F045F90190D0
:1002C0000198012800D0FEE71F48016841F08051E5
:1002D00001601E4C206840F440402060002000F087
:1002E000D7F8A01400F004F94FF4A05000F0F6F88D
:1002F00043463A4631464FF48000009500F008F935
:10030000012000F0FFF8392000F09EF80028FAD014
:10031000206840F4803020606068C003FCD520680D
:1003200040F40030206060688003FCD5084940F24A
:1003300005700860022000F0FDF800F0A1F8082820
:10034000FBD1BDE8FC810000403802400070004055
:10035000003C0240FEE700002DE9FC410121802025
:1003600000F064F84FF48064009401208DF80400DC
:1003700000218DF806108DF807008DF805100C4F40
:1003800069463846FFF74BFF6600009669463846D7
:10039000FFF745FFA500009569463846FFF73FFF88
:1003A00003481830048006800580BDE8FC81000009
:1003B000001C02401CB50121084600F037F84FF43C
:1003C0008070009003208DF8050002208DF8040055
:1003D00000208DF8060001208DF8070069460248CC
:1003E000FFF71DFF1CBD0000000002401CB50121ED
:1003F000042000F01BF84FF40070009003208DF8EB
:10040000050002208DF8040000208DF80600012070
:100410008DF8070069460248FFF701FF1CBD000088
:1004200000080240FEE7704770470000054A0029B7
:1004300003D0116801431160704711688143116056
:10044000704700003038024002460020510901295F
:100450000BD002290DD00949096802F01F020123BF
:1004600093400B4200D00120704704497439096859
:10047000F3E70249091F0968EFE7000074380240FA
:100480000248006800F00C00704700000838024085
:10049000034A116821F0F001014311607047000028
:1004A00008380240024900220A70087070470000B4
:1004B00002380240034B1A6822F0EC6208431043F2
:1004C0001860704708380240034B1A6822F07842DF
:1004D000084310431860704708380240034A116807
:1004E00021F4E051014311607047000008380240D8
:1004F000034A116821F4604141EAC000106070476E
:100500000838024001490866704700000000474271
:1005100010B5029C41EA82114FF0FF3202EB530208
:1005200041EA0241014341EA04600149086010BD0B
:1005300004380240034A116821F0030101431160AD
:10054000704700000838024018B5002000904FF4B2
:10055000A0443120FFF778FF0099491C00910099D1
:10056000A14201D00028F4D03120FFF76DFF08B17F
:10057000012018BD002018BD704700001CB50021E7
:10058000019100912E4A106840F4803010604FF4C1
:10059000A043106800F4003000900198401C0190C6
:1005A000009810B901989842F3D11068800302D5E1
:1005B0000120009000E00091009801283FD12048E0
:1005C0004030016841F0805101601E49086840F4E4
:1005D000404008601A48083003680360036843F429
:1005E00000430360036843F4A0530360041F164BE9
:1005F0002360136843F08073136013689B01FCD57C
:100600000A6842F480320A604A68D203FCD50A685C
:1006100042F400320A604A689203FCD50B4A40F269
:1006200005711160016821F003010160016841F06A
:10063000020101600168C1F381010229FAD11CBDE8
:100640000038024000700040195A4007003C024048
:100650007047000010B50F48016841F001010160CA
:100660000C4A00210832116002680B4B1A400260EC
:10067000031D0A4A1A60026822F4802202600548BB
:100680000C300160FFF77AFF05494FF00060086009
:1006900010BD000000380240FFFFF6FE10300024BD
:1006A00008ED00E0FEE702E008C8121F08C1002ABA
:1006B000FAD170477047002001E001C1121F002AE3
:1006C000FBD17047072302224FF4B4711920FFF7C2
:1006D000E9FDFFF741FEFFF76DFEFFF787FE002102
:1006E0004FF4C000FFF7E6FE00210846FFF7ECFEDE
:1006F000094C0A4D4FF4806631462046FFF7CDFD88
:100700002846FFF783FD31462046FFF7C8FD2846FF
:10071000FFF77CFDF0E70000001C0240FFFF0F0028
:10072000300700080000002000040000B6060008A2
:04000005080001AD41
:00000001FF
